{
	"data": {
		"bytecode": {
			"linkReferences": {},
			"object": "608060405234801561001057600080fd5b50611b6b806100206000396000f3fe60806040523480156200001157600080fd5b5060043610620000465760003560e01c80630ba88fa5146200004b5780637ee661c91462000081578063a1bf1cca14620000a1575b600080fd5b620000696004803603810190620000639190620003d3565b620000c3565b60405162000078919062000521565b60405180910390f35b6200009f6004803603810190620000999190620002e5565b62000103565b005b620000ab620001b2565b604051620000ba9190620004fd565b60405180910390f35b60008181548110620000d457600080fd5b906000526020600020016000915054906101000a900473ffffffffffffffffffffffffffffffffffffffff1681565b60008433858585604051620001189062000242565b620001289594939291906200053e565b604051809103906000f08015801562000145573d6000803e3d6000fd5b5090506000819080600181540180825580915050600190039060005260206000200160009091909190916101000a81548173ffffffffffffffffffffffffffffffffffffffff021916908373ffffffffffffffffffffffffffffffffffffffff1602179055505050505050565b606060008054806020026020016040519081016040528092919081815260200182805480156200023857602002820191906000526020600020905b8160009054906101000a900473ffffffffffffffffffffffffffffffffffffffff1673ffffffffffffffffffffffffffffffffffffffff1681526020019060010190808311620001ed575b5050505050905090565b61137b80620007bb83390190565b6000620002676200026184620005e0565b620005b7565b90508281526020810184848401111562000286576200028562000780565b5b62000293848285620006d1565b509392505050565b600082601f830112620002b357620002b26200077b565b5b8135620002c584826020860162000250565b91505092915050565b600081359050620002df81620007a0565b92915050565b600080600080608085870312156200030257620003016200078a565b5b600085013567ffffffffffffffff81111562000323576200032262000785565b5b62000331878288016200029b565b945050602085013567ffffffffffffffff81111562000355576200035462000785565b5b62000363878288016200029b565b935050604085013567ffffffffffffffff81111562000387576200038662000785565b5b62000395878288016200029b565b925050606085013567ffffffffffffffff811115620003b957620003b862000785565b5b620003c7878288016200029b565b91505092959194509250565b600060208284031215620003ec57620003eb6200078a565b5b6000620003fc84828501620002ce565b91505092915050565b60006200041383836200049a565b60208301905092915050565b6200042a816200066b565b82525050565b60006200043d8262000626565b62000449818562000649565b9350620004568362000616565b8060005b838110156200048d57815162000471888262000405565b97506200047e836200063c565b9250506001810190506200045a565b5085935050505092915050565b620004a581620006a9565b82525050565b620004b681620006a9565b82525050565b6000620004c98262000631565b620004d581856200065a565b9350620004e7818560208601620006e0565b620004f2816200078f565b840191505092915050565b6000602082019050818103600083015262000519818462000430565b905092915050565b6000602082019050620005386000830184620004ab565b92915050565b600060a08201905081810360008301526200055a8188620004bc565b90506200056b60208301876200041f565b81810360408301526200057f8186620004bc565b90508181036060830152620005958185620004bc565b90508181036080830152620005ab8184620004bc565b90509695505050505050565b6000620005c3620005d6565b9050620005d1828262000716565b919050565b6000604051905090565b600067ffffffffffffffff821115620005fe57620005fd6200074c565b5b62000609826200078f565b9050602081019050919050565b6000819050602082019050919050565b600081519050919050565b600081519050919050565b6000602082019050919050565b600082825260208201905092915050565b600082825260208201905092915050565b600062000678826200067f565b9050919050565b600073ffffffffffffffffffffffffffffffffffffffff82169050919050565b6000819050919050565b6000620006b682620006bd565b9050919050565b6000620006ca826200067f565b9050919050565b82818337600083830152505050565b60005b8381101562000700578082015181840152602081019050620006e3565b8381111562000710576000848401525b50505050565b62000721826200078f565b810181811067ffffffffffffffff821117156200074357620007426200074c565b5b80604052505050565b7f4e487b7100000000000000000000000000000000000000000000000000000000600052604160045260246000fd5b600080fd5b600080fd5b600080fd5b600080fd5b6000601f19601f8301169050919050565b620007ab816200069f565b8114620007b757600080fd5b5056fe60806040523480156200001157600080fd5b506040516200137b3803806200137b833981810160405281019062000037919062000233565b84600190805190602001906200004f929190620000ee565b50836000806101000a81548173ffffffffffffffffffffffffffffffffffffffff021916908373ffffffffffffffffffffffffffffffffffffffff1602179055508260039080519060200190620000a8929190620000ee565b508160049080519060200190620000c1929190620000ee565b5060006002819055508060059080519060200190620000e2929190620000ee565b50505050505062000509565b828054620000fc9062000400565b90600052602060002090601f0160209004810192826200012057600085556200016c565b82601f106200013b57805160ff19168380011785556200016c565b828001600101855582156200016c579182015b828111156200016b5782518255916020019190600101906200014e565b5b5090506200017b91906200017f565b5090565b5b808211156200019a57600081600090555060010162000180565b5090565b6000620001b5620001af8462000360565b62000337565b905082815260208101848484011115620001d457620001d3620004cf565b5b620001e1848285620003ca565b509392505050565b600081519050620001fa81620004ef565b92915050565b600082601f830112620002185762000217620004ca565b5b81516200022a8482602086016200019e565b91505092915050565b600080600080600060a08688031215620002525762000251620004d9565b5b600086015167ffffffffffffffff811115620002735762000272620004d4565b5b620002818882890162000200565b95505060206200029488828901620001e9565b945050604086015167ffffffffffffffff811115620002b857620002b7620004d4565b5b620002c68882890162000200565b935050606086015167ffffffffffffffff811115620002ea57620002e9620004d4565b5b620002f88882890162000200565b925050608086015167ffffffffffffffff8111156200031c576200031b620004d4565b5b6200032a8882890162000200565b9150509295509295909350565b60006200034362000356565b905062000351828262000436565b919050565b6000604051905090565b600067ffffffffffffffff8211156200037e576200037d6200049b565b5b6200038982620004de565b9050602081019050919050565b6000620003a382620003aa565b9050919050565b600073ffffffffffffffffffffffffffffffffffffffff82169050919050565b60005b83811015620003ea578082015181840152602081019050620003cd565b83811115620003fa576000848401525b50505050565b600060028204905060018216806200041957607f821691505b6020821081141562000430576200042f6200046c565b5b50919050565b6200044182620004de565b810181811067ffffffffffffffff821117156200046357620004626200049b565b5b80604052505050565b7f4e487b7100000000000000000000000000000000000000000000000000000000600052602260045260246000fd5b7f4e487b7100000000000000000000000000000000000000000000000000000000600052604160045260246000fd5b600080fd5b600080fd5b600080fd5b600080fd5b6000601f19601f8301169050919050565b620004fa8162000396565b81146200050657600080fd5b50565b610e6280620005196000396000f3fe608060405234801561001057600080fd5b50600436106100a95760003560e01c80637e9dffe6116100715780637e9dffe6146101485780638a4d5a671461017a578063a6c3e6b914610198578063b80777ea146101b6578063e5a0af3d146101d4578063e654266e146101f2576100a9565b80632f23f022146100ae5780634f1270f2146100b857806351f91066146100dc5780636f89b85a146100fa57806371c3f01f1461012a575b600080fd5b6100b6610222565b005b6100c0610356565b6040516100d39796959493929190610b11565b60405180910390f35b6100e461065f565b6040516100f19190610bf5565b60405180910390f35b610114600480360381019061010f91906109b1565b6106ed565b6040516101219190610bda565b60405180910390f35b61013261070d565b60405161013f9190610bf5565b60405180910390f35b610162600480360381019061015d91906109de565b61079b565b60405161017193929190610ba3565b60405180910390f35b610182610802565b60405161018f9190610bf5565b60405180910390f35b6101a0610890565b6040516101ad9190610af6565b60405180910390f35b6101be6108b4565b6040516101cb9190610bf5565b60405180910390f35b6101dc610942565b6040516101e99190610c17565b60405180910390f35b61020c600480360381019061020791906109de565b610948565b6040516102199190610af6565b60405180910390f35b60001515600660003373ffffffffffffffffffffffffffffffffffffffff1673ffffffffffffffffffffffffffffffffffffffff16815260200190815260200160002060009054906101000a900460ff1615151461027f57600080fd5b6001600660003373ffffffffffffffffffffffffffffffffffffffff1673ffffffffffffffffffffffffffffffffffffffff16815260200190815260200160002060006101000a81548160ff0219169083151502179055506001600260008282546102ea9190610c87565b925050819055506007339080600181540180825580915050600190039060005260206000200160009091909190916101000a81548173ffffffffffffffffffffffffffffffffffffffff021916908373ffffffffffffffffffffffffffffffffffffffff160217905550565b60006060806060806000606060008054906101000a900473ffffffffffffffffffffffffffffffffffffffff166001600360046005600254600785805461039c90610d58565b80601f01602080910402602001604051908101604052809291908181526020018280546103c890610d58565b80156104155780601f106103ea57610100808354040283529160200191610415565b820191906000526020600020905b8154815290600101906020018083116103f857829003601f168201915b5050505050955084805461042890610d58565b80601f016020809104026020016040519081016040528092919081815260200182805461045490610d58565b80156104a15780601f10610476576101008083540402835291602001916104a1565b820191906000526020600020905b81548152906001019060200180831161048457829003601f168201915b505050505094508380546104b490610d58565b80601f01602080910402602001604051908101604052809291908181526020018280546104e090610d58565b801561052d5780601f106105025761010080835404028352916020019161052d565b820191906000526020600020905b81548152906001019060200180831161051057829003601f168201915b5050505050935082805461054090610d58565b80601f016020809104026020016040519081016040528092919081815260200182805461056c90610d58565b80156105b95780601f1061058e576101008083540402835291602001916105b9565b820191906000526020600020905b81548152906001019060200180831161059c57829003601f168201915b505050505092508080548060200260200160405190810160405280929190818152602001828054801561064157602002820191906000526020600020905b8160009054906101000a900473ffffffffffffffffffffffffffffffffffffffff1673ffffffffffffffffffffffffffffffffffffffff16815260200190600101908083116105f7575b50505050509050965096509650965096509650965090919293949596565b6003805461066c90610d58565b80601f016020809104026020016040519081016040528092919081815260200182805461069890610d58565b80156106e55780601f106106ba576101008083540402835291602001916106e5565b820191906000526020600020905b8154815290600101906020018083116106c857829003601f168201915b505050505081565b60066020528060005260406000206000915054906101000a900460ff1681565b6001805461071a90610d58565b80601f016020809104026020016040519081016040528092919081815260200182805461074690610d58565b80156107935780601f1061076857610100808354040283529160200191610793565b820191906000526020600020905b81548152906001019060200180831161077657829003601f168201915b505050505081565b600881815481106107ab57600080fd5b90600052602060002090600402016000915090508060000160009054906101000a900473ffffffffffffffffffffffffffffffffffffffff16908060010154908060020160009054906101000a900460ff16905083565b6005805461080f90610d58565b80601f016020809104026020016040519081016040528092919081815260200182805461083b90610d58565b80156108885780601f1061085d57610100808354040283529160200191610888565b820191906000526020600020905b81548152906001019060200180831161086b57829003601f168201915b505050505081565b60008054906101000a900473ffffffffffffffffffffffffffffffffffffffff1681565b600480546108c190610d58565b80601f01602080910402602001604051908101604052809291908181526020018280546108ed90610d58565b801561093a5780601f1061090f5761010080835404028352916020019161093a565b820191906000526020600020905b81548152906001019060200180831161091d57829003601f168201915b505050505081565b60025481565b6007818154811061095857600080fd5b906000526020600020016000915054906101000a900473ffffffffffffffffffffffffffffffffffffffff1681565b60008135905061099681610dfe565b92915050565b6000813590506109ab81610e15565b92915050565b6000602082840312156109c7576109c6610de8565b5b60006109d584828501610987565b91505092915050565b6000602082840312156109f4576109f3610de8565b5b6000610a028482850161099c565b91505092915050565b6000610a178383610a23565b60208301905092915050565b610a2c81610cdd565b82525050565b610a3b81610cdd565b82525050565b6000610a4c82610c42565b610a568185610c65565b9350610a6183610c32565b8060005b83811015610a92578151610a798882610a0b565b9750610a8483610c58565b925050600181019050610a65565b5085935050505092915050565b610aa881610cef565b82525050565b6000610ab982610c4d565b610ac38185610c76565b9350610ad3818560208601610d25565b610adc81610ded565b840191505092915050565b610af081610d1b565b82525050565b6000602082019050610b0b6000830184610a32565b92915050565b600060e082019050610b26600083018a610a32565b8181036020830152610b388189610aae565b90508181036040830152610b4c8188610aae565b90508181036060830152610b608187610aae565b90508181036080830152610b748186610aae565b9050610b8360a0830185610ae7565b81810360c0830152610b958184610a41565b905098975050505050505050565b6000606082019050610bb86000830186610a32565b610bc56020830185610ae7565b610bd26040830184610a9f565b949350505050565b6000602082019050610bef6000830184610a9f565b92915050565b60006020820190508181036000830152610c0f8184610aae565b905092915050565b6000602082019050610c2c6000830184610ae7565b92915050565b6000819050602082019050919050565b600081519050919050565b600081519050919050565b6000602082019050919050565b600082825260208201905092915050565b600082825260208201905092915050565b6000610c9282610d1b565b9150610c9d83610d1b565b9250827fffffffffffffffffffffffffffffffffffffffffffffffffffffffffffffffff03821115610cd257610cd1610d8a565b5b828201905092915050565b6000610ce882610cfb565b9050919050565b60008115159050919050565b600073ffffffffffffffffffffffffffffffffffffffff82169050919050565b6000819050919050565b60005b83811015610d43578082015181840152602081019050610d28565b83811115610d52576000848401525b50505050565b60006002820490506001821680610d7057607f821691505b60208210811415610d8457610d83610db9565b5b50919050565b7f4e487b7100000000000000000000000000000000000000000000000000000000600052601160045260246000fd5b7f4e487b7100000000000000000000000000000000000000000000000000000000600052602260045260246000fd5b600080fd5b6000601f19601f8301169050919050565b610e0781610cdd565b8114610e1257600080fd5b50565b610e1e81610d1b565b8114610e2957600080fd5b5056fea264697066735822122040dcd1fe4af1ddba36c8742103293f73d7c0a894d1ef50b328f135cda3d33d0464736f6c63430008060033a2646970667358221220f0b7b6cb2991a7fa12b6b12a5504c812fe943f58ef2cdbfd7b73b89b058d056664736f6c63430008060033",
			"opcodes": "PUSH1 0x80 PUSH1 0x40 MSTORE CALLVALUE DUP1 ISZERO PUSH2 0x10 JUMPI PUSH1 0x0 DUP1 REVERT JUMPDEST POP PUSH2 0x1B6B DUP1 PUSH2 0x20 PUSH1 0x0 CODECOPY PUSH1 0x0 RETURN INVALID PUSH1 0x80 PUSH1 0x40 MSTORE CALLVALUE DUP1 ISZERO PUSH3 0x11 JUMPI PUSH1 0x0 DUP1 REVERT JUMPDEST POP PUSH1 0x4 CALLDATASIZE LT PUSH3 0x46 JUMPI PUSH1 0x0 CALLDATALOAD PUSH1 0xE0 SHR DUP1 PUSH4 0xBA88FA5 EQ PUSH3 0x4B JUMPI DUP1 PUSH4 0x7EE661C9 EQ PUSH3 0x81 JUMPI DUP1 PUSH4 0xA1BF1CCA EQ PUSH3 0xA1 JUMPI JUMPDEST PUSH1 0x0 DUP1 REVERT JUMPDEST PUSH3 0x69 PUSH1 0x4 DUP1 CALLDATASIZE SUB DUP2 ADD SWAP1 PUSH3 0x63 SWAP2 SWAP1 PUSH3 0x3D3 JUMP JUMPDEST PUSH3 0xC3 JUMP JUMPDEST PUSH1 0x40 MLOAD PUSH3 0x78 SWAP2 SWAP1 PUSH3 0x521 JUMP JUMPDEST PUSH1 0x40 MLOAD DUP1 SWAP2 SUB SWAP1 RETURN JUMPDEST PUSH3 0x9F PUSH1 0x4 DUP1 CALLDATASIZE SUB DUP2 ADD SWAP1 PUSH3 0x99 SWAP2 SWAP1 PUSH3 0x2E5 JUMP JUMPDEST PUSH3 0x103 JUMP JUMPDEST STOP JUMPDEST PUSH3 0xAB PUSH3 0x1B2 JUMP JUMPDEST PUSH1 0x40 MLOAD PUSH3 0xBA SWAP2 SWAP1 PUSH3 0x4FD JUMP JUMPDEST PUSH1 0x40 MLOAD DUP1 SWAP2 SUB SWAP1 RETURN JUMPDEST PUSH1 0x0 DUP2 DUP2 SLOAD DUP2 LT PUSH3 0xD4 JUMPI PUSH1 0x0 DUP1 REVERT JUMPDEST SWAP1 PUSH1 0x0 MSTORE PUSH1 0x20 PUSH1 0x0 KECCAK256 ADD PUSH1 0x0 SWAP2 POP SLOAD SWAP1 PUSH2 0x100 EXP SWAP1 DIV PUSH20 0xFFFFFFFFFFFFFFFFFFFFFFFFFFFFFFFFFFFFFFFF AND DUP2 JUMP JUMPDEST PUSH1 0x0 DUP5 CALLER DUP6 DUP6 DUP6 PUSH1 0x40 MLOAD PUSH3 0x118 SWAP1 PUSH3 0x242 JUMP JUMPDEST PUSH3 0x128 SWAP6 SWAP5 SWAP4 SWAP3 SWAP2 SWAP1 PUSH3 0x53E JUMP JUMPDEST PUSH1 0x40 MLOAD DUP1 SWAP2 SUB SWAP1 PUSH1 0x0 CREATE DUP1 ISZERO DUP1 ISZERO PUSH3 0x145 JUMPI RETURNDATASIZE PUSH1 0x0 DUP1 RETURNDATACOPY RETURNDATASIZE PUSH1 0x0 REVERT JUMPDEST POP SWAP1 POP PUSH1 0x0 DUP2 SWAP1 DUP1 PUSH1 0x1 DUP2 SLOAD ADD DUP1 DUP3 SSTORE DUP1 SWAP2 POP POP PUSH1 0x1 SWAP1 SUB SWAP1 PUSH1 0x0 MSTORE PUSH1 0x20 PUSH1 0x0 KECCAK256 ADD PUSH1 0x0 SWAP1 SWAP2 SWAP1 SWAP2 SWAP1 SWAP2 PUSH2 0x100 EXP DUP2 SLOAD DUP2 PUSH20 0xFFFFFFFFFFFFFFFFFFFFFFFFFFFFFFFFFFFFFFFF MUL NOT AND SWAP1 DUP4 PUSH20 0xFFFFFFFFFFFFFFFFFFFFFFFFFFFFFFFFFFFFFFFF AND MUL OR SWAP1 SSTORE POP POP POP POP POP POP JUMP JUMPDEST PUSH1 0x60 PUSH1 0x0 DUP1 SLOAD DUP1 PUSH1 0x20 MUL PUSH1 0x20 ADD PUSH1 0x40 MLOAD SWAP1 DUP2 ADD PUSH1 0x40 MSTORE DUP1 SWAP3 SWAP2 SWAP1 DUP2 DUP2 MSTORE PUSH1 0x20 ADD DUP3 DUP1 SLOAD DUP1 ISZERO PUSH3 0x238 JUMPI PUSH1 0x20 MUL DUP3 ADD SWAP2 SWAP1 PUSH1 0x0 MSTORE PUSH1 0x20 PUSH1 0x0 KECCAK256 SWAP1 JUMPDEST DUP2 PUSH1 0x0 SWAP1 SLOAD SWAP1 PUSH2 0x100 EXP SWAP1 DIV PUSH20 0xFFFFFFFFFFFFFFFFFFFFFFFFFFFFFFFFFFFFFFFF AND PUSH20 0xFFFFFFFFFFFFFFFFFFFFFFFFFFFFFFFFFFFFFFFF AND DUP2 MSTORE PUSH1 0x20 ADD SWAP1 PUSH1 0x1 ADD SWAP1 DUP1 DUP4 GT PUSH3 0x1ED JUMPI JUMPDEST POP POP POP POP POP SWAP1 POP SWAP1 JUMP JUMPDEST PUSH2 0x137B DUP1 PUSH3 0x7BB DUP4 CODECOPY ADD SWAP1 JUMP JUMPDEST PUSH1 0x0 PUSH3 0x267 PUSH3 0x261 DUP5 PUSH3 0x5E0 JUMP JUMPDEST PUSH3 0x5B7 JUMP JUMPDEST SWAP1 POP DUP3 DUP2 MSTORE PUSH1 0x20 DUP2 ADD DUP5 DUP5 DUP5 ADD GT ISZERO PUSH3 0x286 JUMPI PUSH3 0x285 PUSH3 0x780 JUMP JUMPDEST JUMPDEST PUSH3 0x293 DUP5 DUP3 DUP6 PUSH3 0x6D1 JUMP JUMPDEST POP SWAP4 SWAP3 POP POP POP JUMP JUMPDEST PUSH1 0x0 DUP3 PUSH1 0x1F DUP4 ADD SLT PUSH3 0x2B3 JUMPI PUSH3 0x2B2 PUSH3 0x77B JUMP JUMPDEST JUMPDEST DUP2 CALLDATALOAD PUSH3 0x2C5 DUP5 DUP3 PUSH1 0x20 DUP7 ADD PUSH3 0x250 JUMP JUMPDEST SWAP2 POP POP SWAP3 SWAP2 POP POP JUMP JUMPDEST PUSH1 0x0 DUP2 CALLDATALOAD SWAP1 POP PUSH3 0x2DF DUP2 PUSH3 0x7A0 JUMP JUMPDEST SWAP3 SWAP2 POP POP JUMP JUMPDEST PUSH1 0x0 DUP1 PUSH1 0x0 DUP1 PUSH1 0x80 DUP6 DUP8 SUB SLT ISZERO PUSH3 0x302 JUMPI PUSH3 0x301 PUSH3 0x78A JUMP JUMPDEST JUMPDEST PUSH1 0x0 DUP6 ADD CALLDATALOAD PUSH8 0xFFFFFFFFFFFFFFFF DUP2 GT ISZERO PUSH3 0x323 JUMPI PUSH3 0x322 PUSH3 0x785 JUMP JUMPDEST JUMPDEST PUSH3 0x331 DUP8 DUP3 DUP9 ADD PUSH3 0x29B JUMP JUMPDEST SWAP5 POP POP PUSH1 0x20 DUP6 ADD CALLDATALOAD PUSH8 0xFFFFFFFFFFFFFFFF DUP2 GT ISZERO PUSH3 0x355 JUMPI PUSH3 0x354 PUSH3 0x785 JUMP JUMPDEST JUMPDEST PUSH3 0x363 DUP8 DUP3 DUP9 ADD PUSH3 0x29B JUMP JUMPDEST SWAP4 POP POP PUSH1 0x40 DUP6 ADD CALLDATALOAD PUSH8 0xFFFFFFFFFFFFFFFF DUP2 GT ISZERO PUSH3 0x387 JUMPI PUSH3 0x386 PUSH3 0x785 JUMP JUMPDEST JUMPDEST PUSH3 0x395 DUP8 DUP3 DUP9 ADD PUSH3 0x29B JUMP JUMPDEST SWAP3 POP POP PUSH1 0x60 DUP6 ADD CALLDATALOAD PUSH8 0xFFFFFFFFFFFFFFFF DUP2 GT ISZERO PUSH3 0x3B9 JUMPI PUSH3 0x3B8 PUSH3 0x785 JUMP JUMPDEST JUMPDEST PUSH3 0x3C7 DUP8 DUP3 DUP9 ADD PUSH3 0x29B JUMP JUMPDEST SWAP2 POP POP SWAP3 SWAP6 SWAP2 SWAP5 POP SWAP3 POP JUMP JUMPDEST PUSH1 0x0 PUSH1 0x20 DUP3 DUP5 SUB SLT ISZERO PUSH3 0x3EC JUMPI PUSH3 0x3EB PUSH3 0x78A JUMP JUMPDEST JUMPDEST PUSH1 0x0 PUSH3 0x3FC DUP5 DUP3 DUP6 ADD PUSH3 0x2CE JUMP JUMPDEST SWAP2 POP POP SWAP3 SWAP2 POP POP JUMP JUMPDEST PUSH1 0x0 PUSH3 0x413 DUP4 DUP4 PUSH3 0x49A JUMP JUMPDEST PUSH1 0x20 DUP4 ADD SWAP1 POP SWAP3 SWAP2 POP POP JUMP JUMPDEST PUSH3 0x42A DUP2 PUSH3 0x66B JUMP JUMPDEST DUP3 MSTORE POP POP JUMP JUMPDEST PUSH1 0x0 PUSH3 0x43D DUP3 PUSH3 0x626 JUMP JUMPDEST PUSH3 0x449 DUP2 DUP6 PUSH3 0x649 JUMP JUMPDEST SWAP4 POP PUSH3 0x456 DUP4 PUSH3 0x616 JUMP JUMPDEST DUP1 PUSH1 0x0 JUMPDEST DUP4 DUP2 LT ISZERO PUSH3 0x48D JUMPI DUP2 MLOAD PUSH3 0x471 DUP9 DUP3 PUSH3 0x405 JUMP JUMPDEST SWAP8 POP PUSH3 0x47E DUP4 PUSH3 0x63C JUMP JUMPDEST SWAP3 POP POP PUSH1 0x1 DUP2 ADD SWAP1 POP PUSH3 0x45A JUMP JUMPDEST POP DUP6 SWAP4 POP POP POP POP SWAP3 SWAP2 POP POP JUMP JUMPDEST PUSH3 0x4A5 DUP2 PUSH3 0x6A9 JUMP JUMPDEST DUP3 MSTORE POP POP JUMP JUMPDEST PUSH3 0x4B6 DUP2 PUSH3 0x6A9 JUMP JUMPDEST DUP3 MSTORE POP POP JUMP JUMPDEST PUSH1 0x0 PUSH3 0x4C9 DUP3 PUSH3 0x631 JUMP JUMPDEST PUSH3 0x4D5 DUP2 DUP6 PUSH3 0x65A JUMP JUMPDEST SWAP4 POP PUSH3 0x4E7 DUP2 DUP6 PUSH1 0x20 DUP7 ADD PUSH3 0x6E0 JUMP JUMPDEST PUSH3 0x4F2 DUP2 PUSH3 0x78F JUMP JUMPDEST DUP5 ADD SWAP2 POP POP SWAP3 SWAP2 POP POP JUMP JUMPDEST PUSH1 0x0 PUSH1 0x20 DUP3 ADD SWAP1 POP DUP2 DUP2 SUB PUSH1 0x0 DUP4 ADD MSTORE PUSH3 0x519 DUP2 DUP5 PUSH3 0x430 JUMP JUMPDEST SWAP1 POP SWAP3 SWAP2 POP POP JUMP JUMPDEST PUSH1 0x0 PUSH1 0x20 DUP3 ADD SWAP1 POP PUSH3 0x538 PUSH1 0x0 DUP4 ADD DUP5 PUSH3 0x4AB JUMP JUMPDEST SWAP3 SWAP2 POP POP JUMP JUMPDEST PUSH1 0x0 PUSH1 0xA0 DUP3 ADD SWAP1 POP DUP2 DUP2 SUB PUSH1 0x0 DUP4 ADD MSTORE PUSH3 0x55A DUP2 DUP9 PUSH3 0x4BC JUMP JUMPDEST SWAP1 POP PUSH3 0x56B PUSH1 0x20 DUP4 ADD DUP8 PUSH3 0x41F JUMP JUMPDEST DUP2 DUP2 SUB PUSH1 0x40 DUP4 ADD MSTORE PUSH3 0x57F DUP2 DUP7 PUSH3 0x4BC JUMP JUMPDEST SWAP1 POP DUP2 DUP2 SUB PUSH1 0x60 DUP4 ADD MSTORE PUSH3 0x595 DUP2 DUP6 PUSH3 0x4BC JUMP JUMPDEST SWAP1 POP DUP2 DUP2 SUB PUSH1 0x80 DUP4 ADD MSTORE PUSH3 0x5AB DUP2 DUP5 PUSH3 0x4BC JUMP JUMPDEST SWAP1 POP SWAP7 SWAP6 POP POP POP POP POP POP JUMP JUMPDEST PUSH1 0x0 PUSH3 0x5C3 PUSH3 0x5D6 JUMP JUMPDEST SWAP1 POP PUSH3 0x5D1 DUP3 DUP3 PUSH3 0x716 JUMP JUMPDEST SWAP2 SWAP1 POP JUMP JUMPDEST PUSH1 0x0 PUSH1 0x40 MLOAD SWAP1 POP SWAP1 JUMP JUMPDEST PUSH1 0x0 PUSH8 0xFFFFFFFFFFFFFFFF DUP3 GT ISZERO PUSH3 0x5FE JUMPI PUSH3 0x5FD PUSH3 0x74C JUMP JUMPDEST JUMPDEST PUSH3 0x609 DUP3 PUSH3 0x78F JUMP JUMPDEST SWAP1 POP PUSH1 0x20 DUP2 ADD SWAP1 POP SWAP2 SWAP1 POP JUMP JUMPDEST PUSH1 0x0 DUP2 SWAP1 POP PUSH1 0x20 DUP3 ADD SWAP1 POP SWAP2 SWAP1 POP JUMP JUMPDEST PUSH1 0x0 DUP2 MLOAD SWAP1 POP SWAP2 SWAP1 POP JUMP JUMPDEST PUSH1 0x0 DUP2 MLOAD SWAP1 POP SWAP2 SWAP1 POP JUMP JUMPDEST PUSH1 0x0 PUSH1 0x20 DUP3 ADD SWAP1 POP SWAP2 SWAP1 POP JUMP JUMPDEST PUSH1 0x0 DUP3 DUP3 MSTORE PUSH1 0x20 DUP3 ADD SWAP1 POP SWAP3 SWAP2 POP POP JUMP JUMPDEST PUSH1 0x0 DUP3 DUP3 MSTORE PUSH1 0x20 DUP3 ADD SWAP1 POP SWAP3 SWAP2 POP POP JUMP JUMPDEST PUSH1 0x0 PUSH3 0x678 DUP3 PUSH3 0x67F JUMP JUMPDEST SWAP1 POP SWAP2 SWAP1 POP JUMP JUMPDEST PUSH1 0x0 PUSH20 0xFFFFFFFFFFFFFFFFFFFFFFFFFFFFFFFFFFFFFFFF DUP3 AND SWAP1 POP SWAP2 SWAP1 POP JUMP JUMPDEST PUSH1 0x0 DUP2 SWAP1 POP SWAP2 SWAP1 POP JUMP JUMPDEST PUSH1 0x0 PUSH3 0x6B6 DUP3 PUSH3 0x6BD JUMP JUMPDEST SWAP1 POP SWAP2 SWAP1 POP JUMP JUMPDEST PUSH1 0x0 PUSH3 0x6CA DUP3 PUSH3 0x67F JUMP JUMPDEST SWAP1 POP SWAP2 SWAP1 POP JUMP JUMPDEST DUP3 DUP2 DUP4 CALLDATACOPY PUSH1 0x0 DUP4 DUP4 ADD MSTORE POP POP POP JUMP JUMPDEST PUSH1 0x0 JUMPDEST DUP4 DUP2 LT ISZERO PUSH3 0x700 JUMPI DUP1 DUP3 ADD MLOAD DUP2 DUP5 ADD MSTORE PUSH1 0x20 DUP2 ADD SWAP1 POP PUSH3 0x6E3 JUMP JUMPDEST DUP4 DUP2 GT ISZERO PUSH3 0x710 JUMPI PUSH1 0x0 DUP5 DUP5 ADD MSTORE JUMPDEST POP POP POP POP JUMP JUMPDEST PUSH3 0x721 DUP3 PUSH3 0x78F JUMP JUMPDEST DUP2 ADD DUP2 DUP2 LT PUSH8 0xFFFFFFFFFFFFFFFF DUP3 GT OR ISZERO PUSH3 0x743 JUMPI PUSH3 0x742 PUSH3 0x74C JUMP JUMPDEST JUMPDEST DUP1 PUSH1 0x40 MSTORE POP POP POP JUMP JUMPDEST PUSH32 0x4E487B7100000000000000000000000000000000000000000000000000000000 PUSH1 0x0 MSTORE PUSH1 0x41 PUSH1 0x4 MSTORE PUSH1 0x24 PUSH1 0x0 REVERT JUMPDEST PUSH1 0x0 DUP1 REVERT JUMPDEST PUSH1 0x0 DUP1 REVERT JUMPDEST PUSH1 0x0 DUP1 REVERT JUMPDEST PUSH1 0x0 DUP1 REVERT JUMPDEST PUSH1 0x0 PUSH1 0x1F NOT PUSH1 0x1F DUP4 ADD AND SWAP1 POP SWAP2 SWAP1 POP JUMP JUMPDEST PUSH3 0x7AB DUP2 PUSH3 0x69F JUMP JUMPDEST DUP2 EQ PUSH3 0x7B7 JUMPI PUSH1 0x0 DUP1 REVERT JUMPDEST POP JUMP INVALID PUSH1 0x80 PUSH1 0x40 MSTORE CALLVALUE DUP1 ISZERO PUSH3 0x11 JUMPI PUSH1 0x0 DUP1 REVERT JUMPDEST POP PUSH1 0x40 MLOAD PUSH3 0x137B CODESIZE SUB DUP1 PUSH3 0x137B DUP4 CODECOPY DUP2 DUP2 ADD PUSH1 0x40 MSTORE DUP2 ADD SWAP1 PUSH3 0x37 SWAP2 SWAP1 PUSH3 0x233 JUMP JUMPDEST DUP5 PUSH1 0x1 SWAP1 DUP1 MLOAD SWAP1 PUSH1 0x20 ADD SWAP1 PUSH3 0x4F SWAP3 SWAP2 SWAP1 PUSH3 0xEE JUMP JUMPDEST POP DUP4 PUSH1 0x0 DUP1 PUSH2 0x100 EXP DUP2 SLOAD DUP2 PUSH20 0xFFFFFFFFFFFFFFFFFFFFFFFFFFFFFFFFFFFFFFFF MUL NOT AND SWAP1 DUP4 PUSH20 0xFFFFFFFFFFFFFFFFFFFFFFFFFFFFFFFFFFFFFFFF AND MUL OR SWAP1 SSTORE POP DUP3 PUSH1 0x3 SWAP1 DUP1 MLOAD SWAP1 PUSH1 0x20 ADD SWAP1 PUSH3 0xA8 SWAP3 SWAP2 SWAP1 PUSH3 0xEE JUMP JUMPDEST POP DUP2 PUSH1 0x4 SWAP1 DUP1 MLOAD SWAP1 PUSH1 0x20 ADD SWAP1 PUSH3 0xC1 SWAP3 SWAP2 SWAP1 PUSH3 0xEE JUMP JUMPDEST POP PUSH1 0x0 PUSH1 0x2 DUP2 SWAP1 SSTORE POP DUP1 PUSH1 0x5 SWAP1 DUP1 MLOAD SWAP1 PUSH1 0x20 ADD SWAP1 PUSH3 0xE2 SWAP3 SWAP2 SWAP1 PUSH3 0xEE JUMP JUMPDEST POP POP POP POP POP POP PUSH3 0x509 JUMP JUMPDEST DUP3 DUP1 SLOAD PUSH3 0xFC SWAP1 PUSH3 0x400 JUMP JUMPDEST SWAP1 PUSH1 0x0 MSTORE PUSH1 0x20 PUSH1 0x0 KECCAK256 SWAP1 PUSH1 0x1F ADD PUSH1 0x20 SWAP1 DIV DUP2 ADD SWAP3 DUP3 PUSH3 0x120 JUMPI PUSH1 0x0 DUP6 SSTORE PUSH3 0x16C JUMP JUMPDEST DUP3 PUSH1 0x1F LT PUSH3 0x13B JUMPI DUP1 MLOAD PUSH1 0xFF NOT AND DUP4 DUP1 ADD OR DUP6 SSTORE PUSH3 0x16C JUMP JUMPDEST DUP3 DUP1 ADD PUSH1 0x1 ADD DUP6 SSTORE DUP3 ISZERO PUSH3 0x16C JUMPI SWAP2 DUP3 ADD JUMPDEST DUP3 DUP2 GT ISZERO PUSH3 0x16B JUMPI DUP3 MLOAD DUP3 SSTORE SWAP2 PUSH1 0x20 ADD SWAP2 SWAP1 PUSH1 0x1 ADD SWAP1 PUSH3 0x14E JUMP JUMPDEST JUMPDEST POP SWAP1 POP PUSH3 0x17B SWAP2 SWAP1 PUSH3 0x17F JUMP JUMPDEST POP SWAP1 JUMP JUMPDEST JUMPDEST DUP1 DUP3 GT ISZERO PUSH3 0x19A JUMPI PUSH1 0x0 DUP2 PUSH1 0x0 SWAP1 SSTORE POP PUSH1 0x1 ADD PUSH3 0x180 JUMP JUMPDEST POP SWAP1 JUMP JUMPDEST PUSH1 0x0 PUSH3 0x1B5 PUSH3 0x1AF DUP5 PUSH3 0x360 JUMP JUMPDEST PUSH3 0x337 JUMP JUMPDEST SWAP1 POP DUP3 DUP2 MSTORE PUSH1 0x20 DUP2 ADD DUP5 DUP5 DUP5 ADD GT ISZERO PUSH3 0x1D4 JUMPI PUSH3 0x1D3 PUSH3 0x4CF JUMP JUMPDEST JUMPDEST PUSH3 0x1E1 DUP5 DUP3 DUP6 PUSH3 0x3CA JUMP JUMPDEST POP SWAP4 SWAP3 POP POP POP JUMP JUMPDEST PUSH1 0x0 DUP2 MLOAD SWAP1 POP PUSH3 0x1FA DUP2 PUSH3 0x4EF JUMP JUMPDEST SWAP3 SWAP2 POP POP JUMP JUMPDEST PUSH1 0x0 DUP3 PUSH1 0x1F DUP4 ADD SLT PUSH3 0x218 JUMPI PUSH3 0x217 PUSH3 0x4CA JUMP JUMPDEST JUMPDEST DUP2 MLOAD PUSH3 0x22A DUP5 DUP3 PUSH1 0x20 DUP7 ADD PUSH3 0x19E JUMP JUMPDEST SWAP2 POP POP SWAP3 SWAP2 POP POP JUMP JUMPDEST PUSH1 0x0 DUP1 PUSH1 0x0 DUP1 PUSH1 0x0 PUSH1 0xA0 DUP7 DUP9 SUB SLT ISZERO PUSH3 0x252 JUMPI PUSH3 0x251 PUSH3 0x4D9 JUMP JUMPDEST JUMPDEST PUSH1 0x0 DUP7 ADD MLOAD PUSH8 0xFFFFFFFFFFFFFFFF DUP2 GT ISZERO PUSH3 0x273 JUMPI PUSH3 0x272 PUSH3 0x4D4 JUMP JUMPDEST JUMPDEST PUSH3 0x281 DUP9 DUP3 DUP10 ADD PUSH3 0x200 JUMP JUMPDEST SWAP6 POP POP PUSH1 0x20 PUSH3 0x294 DUP9 DUP3 DUP10 ADD PUSH3 0x1E9 JUMP JUMPDEST SWAP5 POP POP PUSH1 0x40 DUP7 ADD MLOAD PUSH8 0xFFFFFFFFFFFFFFFF DUP2 GT ISZERO PUSH3 0x2B8 JUMPI PUSH3 0x2B7 PUSH3 0x4D4 JUMP JUMPDEST JUMPDEST PUSH3 0x2C6 DUP9 DUP3 DUP10 ADD PUSH3 0x200 JUMP JUMPDEST SWAP4 POP POP PUSH1 0x60 DUP7 ADD MLOAD PUSH8 0xFFFFFFFFFFFFFFFF DUP2 GT ISZERO PUSH3 0x2EA JUMPI PUSH3 0x2E9 PUSH3 0x4D4 JUMP JUMPDEST JUMPDEST PUSH3 0x2F8 DUP9 DUP3 DUP10 ADD PUSH3 0x200 JUMP JUMPDEST SWAP3 POP POP PUSH1 0x80 DUP7 ADD MLOAD PUSH8 0xFFFFFFFFFFFFFFFF DUP2 GT ISZERO PUSH3 0x31C JUMPI PUSH3 0x31B PUSH3 0x4D4 JUMP JUMPDEST JUMPDEST PUSH3 0x32A DUP9 DUP3 DUP10 ADD PUSH3 0x200 JUMP JUMPDEST SWAP2 POP POP SWAP3 SWAP6 POP SWAP3 SWAP6 SWAP1 SWAP4 POP JUMP JUMPDEST PUSH1 0x0 PUSH3 0x343 PUSH3 0x356 JUMP JUMPDEST SWAP1 POP PUSH3 0x351 DUP3 DUP3 PUSH3 0x436 JUMP JUMPDEST SWAP2 SWAP1 POP JUMP JUMPDEST PUSH1 0x0 PUSH1 0x40 MLOAD SWAP1 POP SWAP1 JUMP JUMPDEST PUSH1 0x0 PUSH8 0xFFFFFFFFFFFFFFFF DUP3 GT ISZERO PUSH3 0x37E JUMPI PUSH3 0x37D PUSH3 0x49B JUMP JUMPDEST JUMPDEST PUSH3 0x389 DUP3 PUSH3 0x4DE JUMP JUMPDEST SWAP1 POP PUSH1 0x20 DUP2 ADD SWAP1 POP SWAP2 SWAP1 POP JUMP JUMPDEST PUSH1 0x0 PUSH3 0x3A3 DUP3 PUSH3 0x3AA JUMP JUMPDEST SWAP1 POP SWAP2 SWAP1 POP JUMP JUMPDEST PUSH1 0x0 PUSH20 0xFFFFFFFFFFFFFFFFFFFFFFFFFFFFFFFFFFFFFFFF DUP3 AND SWAP1 POP SWAP2 SWAP1 POP JUMP JUMPDEST PUSH1 0x0 JUMPDEST DUP4 DUP2 LT ISZERO PUSH3 0x3EA JUMPI DUP1 DUP3 ADD MLOAD DUP2 DUP5 ADD MSTORE PUSH1 0x20 DUP2 ADD SWAP1 POP PUSH3 0x3CD JUMP JUMPDEST DUP4 DUP2 GT ISZERO PUSH3 0x3FA JUMPI PUSH1 0x0 DUP5 DUP5 ADD MSTORE JUMPDEST POP POP POP POP JUMP JUMPDEST PUSH1 0x0 PUSH1 0x2 DUP3 DIV SWAP1 POP PUSH1 0x1 DUP3 AND DUP1 PUSH3 0x419 JUMPI PUSH1 0x7F DUP3 AND SWAP2 POP JUMPDEST PUSH1 0x20 DUP3 LT DUP2 EQ ISZERO PUSH3 0x430 JUMPI PUSH3 0x42F PUSH3 0x46C JUMP JUMPDEST JUMPDEST POP SWAP2 SWAP1 POP JUMP JUMPDEST PUSH3 0x441 DUP3 PUSH3 0x4DE JUMP JUMPDEST DUP2 ADD DUP2 DUP2 LT PUSH8 0xFFFFFFFFFFFFFFFF DUP3 GT OR ISZERO PUSH3 0x463 JUMPI PUSH3 0x462 PUSH3 0x49B JUMP JUMPDEST JUMPDEST DUP1 PUSH1 0x40 MSTORE POP POP POP JUMP JUMPDEST PUSH32 0x4E487B7100000000000000000000000000000000000000000000000000000000 PUSH1 0x0 MSTORE PUSH1 0x22 PUSH1 0x4 MSTORE PUSH1 0x24 PUSH1 0x0 REVERT JUMPDEST PUSH32 0x4E487B7100000000000000000000000000000000000000000000000000000000 PUSH1 0x0 MSTORE PUSH1 0x41 PUSH1 0x4 MSTORE PUSH1 0x24 PUSH1 0x0 REVERT JUMPDEST PUSH1 0x0 DUP1 REVERT JUMPDEST PUSH1 0x0 DUP1 REVERT JUMPDEST PUSH1 0x0 DUP1 REVERT JUMPDEST PUSH1 0x0 DUP1 REVERT JUMPDEST PUSH1 0x0 PUSH1 0x1F NOT PUSH1 0x1F DUP4 ADD AND SWAP1 POP SWAP2 SWAP1 POP JUMP JUMPDEST PUSH3 0x4FA DUP2 PUSH3 0x396 JUMP JUMPDEST DUP2 EQ PUSH3 0x506 JUMPI PUSH1 0x0 DUP1 REVERT JUMPDEST POP JUMP JUMPDEST PUSH2 0xE62 DUP1 PUSH3 0x519 PUSH1 0x0 CODECOPY PUSH1 0x0 RETURN INVALID PUSH1 0x80 PUSH1 0x40 MSTORE CALLVALUE DUP1 ISZERO PUSH2 0x10 JUMPI PUSH1 0x0 DUP1 REVERT JUMPDEST POP PUSH1 0x4 CALLDATASIZE LT PUSH2 0xA9 JUMPI PUSH1 0x0 CALLDATALOAD PUSH1 0xE0 SHR DUP1 PUSH4 0x7E9DFFE6 GT PUSH2 0x71 JUMPI DUP1 PUSH4 0x7E9DFFE6 EQ PUSH2 0x148 JUMPI DUP1 PUSH4 0x8A4D5A67 EQ PUSH2 0x17A JUMPI DUP1 PUSH4 0xA6C3E6B9 EQ PUSH2 0x198 JUMPI DUP1 PUSH4 0xB80777EA EQ PUSH2 0x1B6 JUMPI DUP1 PUSH4 0xE5A0AF3D EQ PUSH2 0x1D4 JUMPI DUP1 PUSH4 0xE654266E EQ PUSH2 0x1F2 JUMPI PUSH2 0xA9 JUMP JUMPDEST DUP1 PUSH4 0x2F23F022 EQ PUSH2 0xAE JUMPI DUP1 PUSH4 0x4F1270F2 EQ PUSH2 0xB8 JUMPI DUP1 PUSH4 0x51F91066 EQ PUSH2 0xDC JUMPI DUP1 PUSH4 0x6F89B85A EQ PUSH2 0xFA JUMPI DUP1 PUSH4 0x71C3F01F EQ PUSH2 0x12A JUMPI JUMPDEST PUSH1 0x0 DUP1 REVERT JUMPDEST PUSH2 0xB6 PUSH2 0x222 JUMP JUMPDEST STOP JUMPDEST PUSH2 0xC0 PUSH2 0x356 JUMP JUMPDEST PUSH1 0x40 MLOAD PUSH2 0xD3 SWAP8 SWAP7 SWAP6 SWAP5 SWAP4 SWAP3 SWAP2 SWAP1 PUSH2 0xB11 JUMP JUMPDEST PUSH1 0x40 MLOAD DUP1 SWAP2 SUB SWAP1 RETURN JUMPDEST PUSH2 0xE4 PUSH2 0x65F JUMP JUMPDEST PUSH1 0x40 MLOAD PUSH2 0xF1 SWAP2 SWAP1 PUSH2 0xBF5 JUMP JUMPDEST PUSH1 0x40 MLOAD DUP1 SWAP2 SUB SWAP1 RETURN JUMPDEST PUSH2 0x114 PUSH1 0x4 DUP1 CALLDATASIZE SUB DUP2 ADD SWAP1 PUSH2 0x10F SWAP2 SWAP1 PUSH2 0x9B1 JUMP JUMPDEST PUSH2 0x6ED JUMP JUMPDEST PUSH1 0x40 MLOAD PUSH2 0x121 SWAP2 SWAP1 PUSH2 0xBDA JUMP JUMPDEST PUSH1 0x40 MLOAD DUP1 SWAP2 SUB SWAP1 RETURN JUMPDEST PUSH2 0x132 PUSH2 0x70D JUMP JUMPDEST PUSH1 0x40 MLOAD PUSH2 0x13F SWAP2 SWAP1 PUSH2 0xBF5 JUMP JUMPDEST PUSH1 0x40 MLOAD DUP1 SWAP2 SUB SWAP1 RETURN JUMPDEST PUSH2 0x162 PUSH1 0x4 DUP1 CALLDATASIZE SUB DUP2 ADD SWAP1 PUSH2 0x15D SWAP2 SWAP1 PUSH2 0x9DE JUMP JUMPDEST PUSH2 0x79B JUMP JUMPDEST PUSH1 0x40 MLOAD PUSH2 0x171 SWAP4 SWAP3 SWAP2 SWAP1 PUSH2 0xBA3 JUMP JUMPDEST PUSH1 0x40 MLOAD DUP1 SWAP2 SUB SWAP1 RETURN JUMPDEST PUSH2 0x182 PUSH2 0x802 JUMP JUMPDEST PUSH1 0x40 MLOAD PUSH2 0x18F SWAP2 SWAP1 PUSH2 0xBF5 JUMP JUMPDEST PUSH1 0x40 MLOAD DUP1 SWAP2 SUB SWAP1 RETURN JUMPDEST PUSH2 0x1A0 PUSH2 0x890 JUMP JUMPDEST PUSH1 0x40 MLOAD PUSH2 0x1AD SWAP2 SWAP1 PUSH2 0xAF6 JUMP JUMPDEST PUSH1 0x40 MLOAD DUP1 SWAP2 SUB SWAP1 RETURN JUMPDEST PUSH2 0x1BE PUSH2 0x8B4 JUMP JUMPDEST PUSH1 0x40 MLOAD PUSH2 0x1CB SWAP2 SWAP1 PUSH2 0xBF5 JUMP JUMPDEST PUSH1 0x40 MLOAD DUP1 SWAP2 SUB SWAP1 RETURN JUMPDEST PUSH2 0x1DC PUSH2 0x942 JUMP JUMPDEST PUSH1 0x40 MLOAD PUSH2 0x1E9 SWAP2 SWAP1 PUSH2 0xC17 JUMP JUMPDEST PUSH1 0x40 MLOAD DUP1 SWAP2 SUB SWAP1 RETURN JUMPDEST PUSH2 0x20C PUSH1 0x4 DUP1 CALLDATASIZE SUB DUP2 ADD SWAP1 PUSH2 0x207 SWAP2 SWAP1 PUSH2 0x9DE JUMP JUMPDEST PUSH2 0x948 JUMP JUMPDEST PUSH1 0x40 MLOAD PUSH2 0x219 SWAP2 SWAP1 PUSH2 0xAF6 JUMP JUMPDEST PUSH1 0x40 MLOAD DUP1 SWAP2 SUB SWAP1 RETURN JUMPDEST PUSH1 0x0 ISZERO ISZERO PUSH1 0x6 PUSH1 0x0 CALLER PUSH20 0xFFFFFFFFFFFFFFFFFFFFFFFFFFFFFFFFFFFFFFFF AND PUSH20 0xFFFFFFFFFFFFFFFFFFFFFFFFFFFFFFFFFFFFFFFF AND DUP2 MSTORE PUSH1 0x20 ADD SWAP1 DUP2 MSTORE PUSH1 0x20 ADD PUSH1 0x0 KECCAK256 PUSH1 0x0 SWAP1 SLOAD SWAP1 PUSH2 0x100 EXP SWAP1 DIV PUSH1 0xFF AND ISZERO ISZERO EQ PUSH2 0x27F JUMPI PUSH1 0x0 DUP1 REVERT JUMPDEST PUSH1 0x1 PUSH1 0x6 PUSH1 0x0 CALLER PUSH20 0xFFFFFFFFFFFFFFFFFFFFFFFFFFFFFFFFFFFFFFFF AND PUSH20 0xFFFFFFFFFFFFFFFFFFFFFFFFFFFFFFFFFFFFFFFF AND DUP2 MSTORE PUSH1 0x20 ADD SWAP1 DUP2 MSTORE PUSH1 0x20 ADD PUSH1 0x0 KECCAK256 PUSH1 0x0 PUSH2 0x100 EXP DUP2 SLOAD DUP2 PUSH1 0xFF MUL NOT AND SWAP1 DUP4 ISZERO ISZERO MUL OR SWAP1 SSTORE POP PUSH1 0x1 PUSH1 0x2 PUSH1 0x0 DUP3 DUP3 SLOAD PUSH2 0x2EA SWAP2 SWAP1 PUSH2 0xC87 JUMP JUMPDEST SWAP3 POP POP DUP2 SWAP1 SSTORE POP PUSH1 0x7 CALLER SWAP1 DUP1 PUSH1 0x1 DUP2 SLOAD ADD DUP1 DUP3 SSTORE DUP1 SWAP2 POP POP PUSH1 0x1 SWAP1 SUB SWAP1 PUSH1 0x0 MSTORE PUSH1 0x20 PUSH1 0x0 KECCAK256 ADD PUSH1 0x0 SWAP1 SWAP2 SWAP1 SWAP2 SWAP1 SWAP2 PUSH2 0x100 EXP DUP2 SLOAD DUP2 PUSH20 0xFFFFFFFFFFFFFFFFFFFFFFFFFFFFFFFFFFFFFFFF MUL NOT AND SWAP1 DUP4 PUSH20 0xFFFFFFFFFFFFFFFFFFFFFFFFFFFFFFFFFFFFFFFF AND MUL OR SWAP1 SSTORE POP JUMP JUMPDEST PUSH1 0x0 PUSH1 0x60 DUP1 PUSH1 0x60 DUP1 PUSH1 0x0 PUSH1 0x60 PUSH1 0x0 DUP1 SLOAD SWAP1 PUSH2 0x100 EXP SWAP1 DIV PUSH20 0xFFFFFFFFFFFFFFFFFFFFFFFFFFFFFFFFFFFFFFFF AND PUSH1 0x1 PUSH1 0x3 PUSH1 0x4 PUSH1 0x5 PUSH1 0x2 SLOAD PUSH1 0x7 DUP6 DUP1 SLOAD PUSH2 0x39C SWAP1 PUSH2 0xD58 JUMP JUMPDEST DUP1 PUSH1 0x1F ADD PUSH1 0x20 DUP1 SWAP2 DIV MUL PUSH1 0x20 ADD PUSH1 0x40 MLOAD SWAP1 DUP2 ADD PUSH1 0x40 MSTORE DUP1 SWAP3 SWAP2 SWAP1 DUP2 DUP2 MSTORE PUSH1 0x20 ADD DUP3 DUP1 SLOAD PUSH2 0x3C8 SWAP1 PUSH2 0xD58 JUMP JUMPDEST DUP1 ISZERO PUSH2 0x415 JUMPI DUP1 PUSH1 0x1F LT PUSH2 0x3EA JUMPI PUSH2 0x100 DUP1 DUP4 SLOAD DIV MUL DUP4 MSTORE SWAP2 PUSH1 0x20 ADD SWAP2 PUSH2 0x415 JUMP JUMPDEST DUP3 ADD SWAP2 SWAP1 PUSH1 0x0 MSTORE PUSH1 0x20 PUSH1 0x0 KECCAK256 SWAP1 JUMPDEST DUP2 SLOAD DUP2 MSTORE SWAP1 PUSH1 0x1 ADD SWAP1 PUSH1 0x20 ADD DUP1 DUP4 GT PUSH2 0x3F8 JUMPI DUP3 SWAP1 SUB PUSH1 0x1F AND DUP3 ADD SWAP2 JUMPDEST POP POP POP POP POP SWAP6 POP DUP5 DUP1 SLOAD PUSH2 0x428 SWAP1 PUSH2 0xD58 JUMP JUMPDEST DUP1 PUSH1 0x1F ADD PUSH1 0x20 DUP1 SWAP2 DIV MUL PUSH1 0x20 ADD PUSH1 0x40 MLOAD SWAP1 DUP2 ADD PUSH1 0x40 MSTORE DUP1 SWAP3 SWAP2 SWAP1 DUP2 DUP2 MSTORE PUSH1 0x20 ADD DUP3 DUP1 SLOAD PUSH2 0x454 SWAP1 PUSH2 0xD58 JUMP JUMPDEST DUP1 ISZERO PUSH2 0x4A1 JUMPI DUP1 PUSH1 0x1F LT PUSH2 0x476 JUMPI PUSH2 0x100 DUP1 DUP4 SLOAD DIV MUL DUP4 MSTORE SWAP2 PUSH1 0x20 ADD SWAP2 PUSH2 0x4A1 JUMP JUMPDEST DUP3 ADD SWAP2 SWAP1 PUSH1 0x0 MSTORE PUSH1 0x20 PUSH1 0x0 KECCAK256 SWAP1 JUMPDEST DUP2 SLOAD DUP2 MSTORE SWAP1 PUSH1 0x1 ADD SWAP1 PUSH1 0x20 ADD DUP1 DUP4 GT PUSH2 0x484 JUMPI DUP3 SWAP1 SUB PUSH1 0x1F AND DUP3 ADD SWAP2 JUMPDEST POP POP POP POP POP SWAP5 POP DUP4 DUP1 SLOAD PUSH2 0x4B4 SWAP1 PUSH2 0xD58 JUMP JUMPDEST DUP1 PUSH1 0x1F ADD PUSH1 0x20 DUP1 SWAP2 DIV MUL PUSH1 0x20 ADD PUSH1 0x40 MLOAD SWAP1 DUP2 ADD PUSH1 0x40 MSTORE DUP1 SWAP3 SWAP2 SWAP1 DUP2 DUP2 MSTORE PUSH1 0x20 ADD DUP3 DUP1 SLOAD PUSH2 0x4E0 SWAP1 PUSH2 0xD58 JUMP JUMPDEST DUP1 ISZERO PUSH2 0x52D JUMPI DUP1 PUSH1 0x1F LT PUSH2 0x502 JUMPI PUSH2 0x100 DUP1 DUP4 SLOAD DIV MUL DUP4 MSTORE SWAP2 PUSH1 0x20 ADD SWAP2 PUSH2 0x52D JUMP JUMPDEST DUP3 ADD SWAP2 SWAP1 PUSH1 0x0 MSTORE PUSH1 0x20 PUSH1 0x0 KECCAK256 SWAP1 JUMPDEST DUP2 SLOAD DUP2 MSTORE SWAP1 PUSH1 0x1 ADD SWAP1 PUSH1 0x20 ADD DUP1 DUP4 GT PUSH2 0x510 JUMPI DUP3 SWAP1 SUB PUSH1 0x1F AND DUP3 ADD SWAP2 JUMPDEST POP POP POP POP POP SWAP4 POP DUP3 DUP1 SLOAD PUSH2 0x540 SWAP1 PUSH2 0xD58 JUMP JUMPDEST DUP1 PUSH1 0x1F ADD PUSH1 0x20 DUP1 SWAP2 DIV MUL PUSH1 0x20 ADD PUSH1 0x40 MLOAD SWAP1 DUP2 ADD PUSH1 0x40 MSTORE DUP1 SWAP3 SWAP2 SWAP1 DUP2 DUP2 MSTORE PUSH1 0x20 ADD DUP3 DUP1 SLOAD PUSH2 0x56C SWAP1 PUSH2 0xD58 JUMP JUMPDEST DUP1 ISZERO PUSH2 0x5B9 JUMPI DUP1 PUSH1 0x1F LT PUSH2 0x58E JUMPI PUSH2 0x100 DUP1 DUP4 SLOAD DIV MUL DUP4 MSTORE SWAP2 PUSH1 0x20 ADD SWAP2 PUSH2 0x5B9 JUMP JUMPDEST DUP3 ADD SWAP2 SWAP1 PUSH1 0x0 MSTORE PUSH1 0x20 PUSH1 0x0 KECCAK256 SWAP1 JUMPDEST DUP2 SLOAD DUP2 MSTORE SWAP1 PUSH1 0x1 ADD SWAP1 PUSH1 0x20 ADD DUP1 DUP4 GT PUSH2 0x59C JUMPI DUP3 SWAP1 SUB PUSH1 0x1F AND DUP3 ADD SWAP2 JUMPDEST POP POP POP POP POP SWAP3 POP DUP1 DUP1 SLOAD DUP1 PUSH1 0x20 MUL PUSH1 0x20 ADD PUSH1 0x40 MLOAD SWAP1 DUP2 ADD PUSH1 0x40 MSTORE DUP1 SWAP3 SWAP2 SWAP1 DUP2 DUP2 MSTORE PUSH1 0x20 ADD DUP3 DUP1 SLOAD DUP1 ISZERO PUSH2 0x641 JUMPI PUSH1 0x20 MUL DUP3 ADD SWAP2 SWAP1 PUSH1 0x0 MSTORE PUSH1 0x20 PUSH1 0x0 KECCAK256 SWAP1 JUMPDEST DUP2 PUSH1 0x0 SWAP1 SLOAD SWAP1 PUSH2 0x100 EXP SWAP1 DIV PUSH20 0xFFFFFFFFFFFFFFFFFFFFFFFFFFFFFFFFFFFFFFFF AND PUSH20 0xFFFFFFFFFFFFFFFFFFFFFFFFFFFFFFFFFFFFFFFF AND DUP2 MSTORE PUSH1 0x20 ADD SWAP1 PUSH1 0x1 ADD SWAP1 DUP1 DUP4 GT PUSH2 0x5F7 JUMPI JUMPDEST POP POP POP POP POP SWAP1 POP SWAP7 POP SWAP7 POP SWAP7 POP SWAP7 POP SWAP7 POP SWAP7 POP SWAP7 POP SWAP1 SWAP2 SWAP3 SWAP4 SWAP5 SWAP6 SWAP7 JUMP JUMPDEST PUSH1 0x3 DUP1 SLOAD PUSH2 0x66C SWAP1 PUSH2 0xD58 JUMP JUMPDEST DUP1 PUSH1 0x1F ADD PUSH1 0x20 DUP1 SWAP2 DIV MUL PUSH1 0x20 ADD PUSH1 0x40 MLOAD SWAP1 DUP2 ADD PUSH1 0x40 MSTORE DUP1 SWAP3 SWAP2 SWAP1 DUP2 DUP2 MSTORE PUSH1 0x20 ADD DUP3 DUP1 SLOAD PUSH2 0x698 SWAP1 PUSH2 0xD58 JUMP JUMPDEST DUP1 ISZERO PUSH2 0x6E5 JUMPI DUP1 PUSH1 0x1F LT PUSH2 0x6BA JUMPI PUSH2 0x100 DUP1 DUP4 SLOAD DIV MUL DUP4 MSTORE SWAP2 PUSH1 0x20 ADD SWAP2 PUSH2 0x6E5 JUMP JUMPDEST DUP3 ADD SWAP2 SWAP1 PUSH1 0x0 MSTORE PUSH1 0x20 PUSH1 0x0 KECCAK256 SWAP1 JUMPDEST DUP2 SLOAD DUP2 MSTORE SWAP1 PUSH1 0x1 ADD SWAP1 PUSH1 0x20 ADD DUP1 DUP4 GT PUSH2 0x6C8 JUMPI DUP3 SWAP1 SUB PUSH1 0x1F AND DUP3 ADD SWAP2 JUMPDEST POP POP POP POP POP DUP2 JUMP JUMPDEST PUSH1 0x6 PUSH1 0x20 MSTORE DUP1 PUSH1 0x0 MSTORE PUSH1 0x40 PUSH1 0x0 KECCAK256 PUSH1 0x0 SWAP2 POP SLOAD SWAP1 PUSH2 0x100 EXP SWAP1 DIV PUSH1 0xFF AND DUP2 JUMP JUMPDEST PUSH1 0x1 DUP1 SLOAD PUSH2 0x71A SWAP1 PUSH2 0xD58 JUMP JUMPDEST DUP1 PUSH1 0x1F ADD PUSH1 0x20 DUP1 SWAP2 DIV MUL PUSH1 0x20 ADD PUSH1 0x40 MLOAD SWAP1 DUP2 ADD PUSH1 0x40 MSTORE DUP1 SWAP3 SWAP2 SWAP1 DUP2 DUP2 MSTORE PUSH1 0x20 ADD DUP3 DUP1 SLOAD PUSH2 0x746 SWAP1 PUSH2 0xD58 JUMP JUMPDEST DUP1 ISZERO PUSH2 0x793 JUMPI DUP1 PUSH1 0x1F LT PUSH2 0x768 JUMPI PUSH2 0x100 DUP1 DUP4 SLOAD DIV MUL DUP4 MSTORE SWAP2 PUSH1 0x20 ADD SWAP2 PUSH2 0x793 JUMP JUMPDEST DUP3 ADD SWAP2 SWAP1 PUSH1 0x0 MSTORE PUSH1 0x20 PUSH1 0x0 KECCAK256 SWAP1 JUMPDEST DUP2 SLOAD DUP2 MSTORE SWAP1 PUSH1 0x1 ADD SWAP1 PUSH1 0x20 ADD DUP1 DUP4 GT PUSH2 0x776 JUMPI DUP3 SWAP1 SUB PUSH1 0x1F AND DUP3 ADD SWAP2 JUMPDEST POP POP POP POP POP DUP2 JUMP JUMPDEST PUSH1 0x8 DUP2 DUP2 SLOAD DUP2 LT PUSH2 0x7AB JUMPI PUSH1 0x0 DUP1 REVERT JUMPDEST SWAP1 PUSH1 0x0 MSTORE PUSH1 0x20 PUSH1 0x0 KECCAK256 SWAP1 PUSH1 0x4 MUL ADD PUSH1 0x0 SWAP2 POP SWAP1 POP DUP1 PUSH1 0x0 ADD PUSH1 0x0 SWAP1 SLOAD SWAP1 PUSH2 0x100 EXP SWAP1 DIV PUSH20 0xFFFFFFFFFFFFFFFFFFFFFFFFFFFFFFFFFFFFFFFF AND SWAP1 DUP1 PUSH1 0x1 ADD SLOAD SWAP1 DUP1 PUSH1 0x2 ADD PUSH1 0x0 SWAP1 SLOAD SWAP1 PUSH2 0x100 EXP SWAP1 DIV PUSH1 0xFF AND SWAP1 POP DUP4 JUMP JUMPDEST PUSH1 0x5 DUP1 SLOAD PUSH2 0x80F SWAP1 PUSH2 0xD58 JUMP JUMPDEST DUP1 PUSH1 0x1F ADD PUSH1 0x20 DUP1 SWAP2 DIV MUL PUSH1 0x20 ADD PUSH1 0x40 MLOAD SWAP1 DUP2 ADD PUSH1 0x40 MSTORE DUP1 SWAP3 SWAP2 SWAP1 DUP2 DUP2 MSTORE PUSH1 0x20 ADD DUP3 DUP1 SLOAD PUSH2 0x83B SWAP1 PUSH2 0xD58 JUMP JUMPDEST DUP1 ISZERO PUSH2 0x888 JUMPI DUP1 PUSH1 0x1F LT PUSH2 0x85D JUMPI PUSH2 0x100 DUP1 DUP4 SLOAD DIV MUL DUP4 MSTORE SWAP2 PUSH1 0x20 ADD SWAP2 PUSH2 0x888 JUMP JUMPDEST DUP3 ADD SWAP2 SWAP1 PUSH1 0x0 MSTORE PUSH1 0x20 PUSH1 0x0 KECCAK256 SWAP1 JUMPDEST DUP2 SLOAD DUP2 MSTORE SWAP1 PUSH1 0x1 ADD SWAP1 PUSH1 0x20 ADD DUP1 DUP4 GT PUSH2 0x86B JUMPI DUP3 SWAP1 SUB PUSH1 0x1F AND DUP3 ADD SWAP2 JUMPDEST POP POP POP POP POP DUP2 JUMP JUMPDEST PUSH1 0x0 DUP1 SLOAD SWAP1 PUSH2 0x100 EXP SWAP1 DIV PUSH20 0xFFFFFFFFFFFFFFFFFFFFFFFFFFFFFFFFFFFFFFFF AND DUP2 JUMP JUMPDEST PUSH1 0x4 DUP1 SLOAD PUSH2 0x8C1 SWAP1 PUSH2 0xD58 JUMP JUMPDEST DUP1 PUSH1 0x1F ADD PUSH1 0x20 DUP1 SWAP2 DIV MUL PUSH1 0x20 ADD PUSH1 0x40 MLOAD SWAP1 DUP2 ADD PUSH1 0x40 MSTORE DUP1 SWAP3 SWAP2 SWAP1 DUP2 DUP2 MSTORE PUSH1 0x20 ADD DUP3 DUP1 SLOAD PUSH2 0x8ED SWAP1 PUSH2 0xD58 JUMP JUMPDEST DUP1 ISZERO PUSH2 0x93A JUMPI DUP1 PUSH1 0x1F LT PUSH2 0x90F JUMPI PUSH2 0x100 DUP1 DUP4 SLOAD DIV MUL DUP4 MSTORE SWAP2 PUSH1 0x20 ADD SWAP2 PUSH2 0x93A JUMP JUMPDEST DUP3 ADD SWAP2 SWAP1 PUSH1 0x0 MSTORE PUSH1 0x20 PUSH1 0x0 KECCAK256 SWAP1 JUMPDEST DUP2 SLOAD DUP2 MSTORE SWAP1 PUSH1 0x1 ADD SWAP1 PUSH1 0x20 ADD DUP1 DUP4 GT PUSH2 0x91D JUMPI DUP3 SWAP1 SUB PUSH1 0x1F AND DUP3 ADD SWAP2 JUMPDEST POP POP POP POP POP DUP2 JUMP JUMPDEST PUSH1 0x2 SLOAD DUP2 JUMP JUMPDEST PUSH1 0x7 DUP2 DUP2 SLOAD DUP2 LT PUSH2 0x958 JUMPI PUSH1 0x0 DUP1 REVERT JUMPDEST SWAP1 PUSH1 0x0 MSTORE PUSH1 0x20 PUSH1 0x0 KECCAK256 ADD PUSH1 0x0 SWAP2 POP SLOAD SWAP1 PUSH2 0x100 EXP SWAP1 DIV PUSH20 0xFFFFFFFFFFFFFFFFFFFFFFFFFFFFFFFFFFFFFFFF AND DUP2 JUMP JUMPDEST PUSH1 0x0 DUP2 CALLDATALOAD SWAP1 POP PUSH2 0x996 DUP2 PUSH2 0xDFE JUMP JUMPDEST SWAP3 SWAP2 POP POP JUMP JUMPDEST PUSH1 0x0 DUP2 CALLDATALOAD SWAP1 POP PUSH2 0x9AB DUP2 PUSH2 0xE15 JUMP JUMPDEST SWAP3 SWAP2 POP POP JUMP JUMPDEST PUSH1 0x0 PUSH1 0x20 DUP3 DUP5 SUB SLT ISZERO PUSH2 0x9C7 JUMPI PUSH2 0x9C6 PUSH2 0xDE8 JUMP JUMPDEST JUMPDEST PUSH1 0x0 PUSH2 0x9D5 DUP5 DUP3 DUP6 ADD PUSH2 0x987 JUMP JUMPDEST SWAP2 POP POP SWAP3 SWAP2 POP POP JUMP JUMPDEST PUSH1 0x0 PUSH1 0x20 DUP3 DUP5 SUB SLT ISZERO PUSH2 0x9F4 JUMPI PUSH2 0x9F3 PUSH2 0xDE8 JUMP JUMPDEST JUMPDEST PUSH1 0x0 PUSH2 0xA02 DUP5 DUP3 DUP6 ADD PUSH2 0x99C JUMP JUMPDEST SWAP2 POP POP SWAP3 SWAP2 POP POP JUMP JUMPDEST PUSH1 0x0 PUSH2 0xA17 DUP4 DUP4 PUSH2 0xA23 JUMP JUMPDEST PUSH1 0x20 DUP4 ADD SWAP1 POP SWAP3 SWAP2 POP POP JUMP JUMPDEST PUSH2 0xA2C DUP2 PUSH2 0xCDD JUMP JUMPDEST DUP3 MSTORE POP POP JUMP JUMPDEST PUSH2 0xA3B DUP2 PUSH2 0xCDD JUMP JUMPDEST DUP3 MSTORE POP POP JUMP JUMPDEST PUSH1 0x0 PUSH2 0xA4C DUP3 PUSH2 0xC42 JUMP JUMPDEST PUSH2 0xA56 DUP2 DUP6 PUSH2 0xC65 JUMP JUMPDEST SWAP4 POP PUSH2 0xA61 DUP4 PUSH2 0xC32 JUMP JUMPDEST DUP1 PUSH1 0x0 JUMPDEST DUP4 DUP2 LT ISZERO PUSH2 0xA92 JUMPI DUP2 MLOAD PUSH2 0xA79 DUP9 DUP3 PUSH2 0xA0B JUMP JUMPDEST SWAP8 POP PUSH2 0xA84 DUP4 PUSH2 0xC58 JUMP JUMPDEST SWAP3 POP POP PUSH1 0x1 DUP2 ADD SWAP1 POP PUSH2 0xA65 JUMP JUMPDEST POP DUP6 SWAP4 POP POP POP POP SWAP3 SWAP2 POP POP JUMP JUMPDEST PUSH2 0xAA8 DUP2 PUSH2 0xCEF JUMP JUMPDEST DUP3 MSTORE POP POP JUMP JUMPDEST PUSH1 0x0 PUSH2 0xAB9 DUP3 PUSH2 0xC4D JUMP JUMPDEST PUSH2 0xAC3 DUP2 DUP6 PUSH2 0xC76 JUMP JUMPDEST SWAP4 POP PUSH2 0xAD3 DUP2 DUP6 PUSH1 0x20 DUP7 ADD PUSH2 0xD25 JUMP JUMPDEST PUSH2 0xADC DUP2 PUSH2 0xDED JUMP JUMPDEST DUP5 ADD SWAP2 POP POP SWAP3 SWAP2 POP POP JUMP JUMPDEST PUSH2 0xAF0 DUP2 PUSH2 0xD1B JUMP JUMPDEST DUP3 MSTORE POP POP JUMP JUMPDEST PUSH1 0x0 PUSH1 0x20 DUP3 ADD SWAP1 POP PUSH2 0xB0B PUSH1 0x0 DUP4 ADD DUP5 PUSH2 0xA32 JUMP JUMPDEST SWAP3 SWAP2 POP POP JUMP JUMPDEST PUSH1 0x0 PUSH1 0xE0 DUP3 ADD SWAP1 POP PUSH2 0xB26 PUSH1 0x0 DUP4 ADD DUP11 PUSH2 0xA32 JUMP JUMPDEST DUP2 DUP2 SUB PUSH1 0x20 DUP4 ADD MSTORE PUSH2 0xB38 DUP2 DUP10 PUSH2 0xAAE JUMP JUMPDEST SWAP1 POP DUP2 DUP2 SUB PUSH1 0x40 DUP4 ADD MSTORE PUSH2 0xB4C DUP2 DUP9 PUSH2 0xAAE JUMP JUMPDEST SWAP1 POP DUP2 DUP2 SUB PUSH1 0x60 DUP4 ADD MSTORE PUSH2 0xB60 DUP2 DUP8 PUSH2 0xAAE JUMP JUMPDEST SWAP1 POP DUP2 DUP2 SUB PUSH1 0x80 DUP4 ADD MSTORE PUSH2 0xB74 DUP2 DUP7 PUSH2 0xAAE JUMP JUMPDEST SWAP1 POP PUSH2 0xB83 PUSH1 0xA0 DUP4 ADD DUP6 PUSH2 0xAE7 JUMP JUMPDEST DUP2 DUP2 SUB PUSH1 0xC0 DUP4 ADD MSTORE PUSH2 0xB95 DUP2 DUP5 PUSH2 0xA41 JUMP JUMPDEST SWAP1 POP SWAP9 SWAP8 POP POP POP POP POP POP POP POP JUMP JUMPDEST PUSH1 0x0 PUSH1 0x60 DUP3 ADD SWAP1 POP PUSH2 0xBB8 PUSH1 0x0 DUP4 ADD DUP7 PUSH2 0xA32 JUMP JUMPDEST PUSH2 0xBC5 PUSH1 0x20 DUP4 ADD DUP6 PUSH2 0xAE7 JUMP JUMPDEST PUSH2 0xBD2 PUSH1 0x40 DUP4 ADD DUP5 PUSH2 0xA9F JUMP JUMPDEST SWAP5 SWAP4 POP POP POP POP JUMP JUMPDEST PUSH1 0x0 PUSH1 0x20 DUP3 ADD SWAP1 POP PUSH2 0xBEF PUSH1 0x0 DUP4 ADD DUP5 PUSH2 0xA9F JUMP JUMPDEST SWAP3 SWAP2 POP POP JUMP JUMPDEST PUSH1 0x0 PUSH1 0x20 DUP3 ADD SWAP1 POP DUP2 DUP2 SUB PUSH1 0x0 DUP4 ADD MSTORE PUSH2 0xC0F DUP2 DUP5 PUSH2 0xAAE JUMP JUMPDEST SWAP1 POP SWAP3 SWAP2 POP POP JUMP JUMPDEST PUSH1 0x0 PUSH1 0x20 DUP3 ADD SWAP1 POP PUSH2 0xC2C PUSH1 0x0 DUP4 ADD DUP5 PUSH2 0xAE7 JUMP JUMPDEST SWAP3 SWAP2 POP POP JUMP JUMPDEST PUSH1 0x0 DUP2 SWAP1 POP PUSH1 0x20 DUP3 ADD SWAP1 POP SWAP2 SWAP1 POP JUMP JUMPDEST PUSH1 0x0 DUP2 MLOAD SWAP1 POP SWAP2 SWAP1 POP JUMP JUMPDEST PUSH1 0x0 DUP2 MLOAD SWAP1 POP SWAP2 SWAP1 POP JUMP JUMPDEST PUSH1 0x0 PUSH1 0x20 DUP3 ADD SWAP1 POP SWAP2 SWAP1 POP JUMP JUMPDEST PUSH1 0x0 DUP3 DUP3 MSTORE PUSH1 0x20 DUP3 ADD SWAP1 POP SWAP3 SWAP2 POP POP JUMP JUMPDEST PUSH1 0x0 DUP3 DUP3 MSTORE PUSH1 0x20 DUP3 ADD SWAP1 POP SWAP3 SWAP2 POP POP JUMP JUMPDEST PUSH1 0x0 PUSH2 0xC92 DUP3 PUSH2 0xD1B JUMP JUMPDEST SWAP2 POP PUSH2 0xC9D DUP4 PUSH2 0xD1B JUMP JUMPDEST SWAP3 POP DUP3 PUSH32 0xFFFFFFFFFFFFFFFFFFFFFFFFFFFFFFFFFFFFFFFFFFFFFFFFFFFFFFFFFFFFFFFF SUB DUP3 GT ISZERO PUSH2 0xCD2 JUMPI PUSH2 0xCD1 PUSH2 0xD8A JUMP JUMPDEST JUMPDEST DUP3 DUP3 ADD SWAP1 POP SWAP3 SWAP2 POP POP JUMP JUMPDEST PUSH1 0x0 PUSH2 0xCE8 DUP3 PUSH2 0xCFB JUMP JUMPDEST SWAP1 POP SWAP2 SWAP1 POP JUMP JUMPDEST PUSH1 0x0 DUP2 ISZERO ISZERO SWAP1 POP SWAP2 SWAP1 POP JUMP JUMPDEST PUSH1 0x0 PUSH20 0xFFFFFFFFFFFFFFFFFFFFFFFFFFFFFFFFFFFFFFFF DUP3 AND SWAP1 POP SWAP2 SWAP1 POP JUMP JUMPDEST PUSH1 0x0 DUP2 SWAP1 POP SWAP2 SWAP1 POP JUMP JUMPDEST PUSH1 0x0 JUMPDEST DUP4 DUP2 LT ISZERO PUSH2 0xD43 JUMPI DUP1 DUP3 ADD MLOAD DUP2 DUP5 ADD MSTORE PUSH1 0x20 DUP2 ADD SWAP1 POP PUSH2 0xD28 JUMP JUMPDEST DUP4 DUP2 GT ISZERO PUSH2 0xD52 JUMPI PUSH1 0x0 DUP5 DUP5 ADD MSTORE JUMPDEST POP POP POP POP JUMP JUMPDEST PUSH1 0x0 PUSH1 0x2 DUP3 DIV SWAP1 POP PUSH1 0x1 DUP3 AND DUP1 PUSH2 0xD70 JUMPI PUSH1 0x7F DUP3 AND SWAP2 POP JUMPDEST PUSH1 0x20 DUP3 LT DUP2 EQ ISZERO PUSH2 0xD84 JUMPI PUSH2 0xD83 PUSH2 0xDB9 JUMP JUMPDEST JUMPDEST POP SWAP2 SWAP1 POP JUMP JUMPDEST PUSH32 0x4E487B7100000000000000000000000000000000000000000000000000000000 PUSH1 0x0 MSTORE PUSH1 0x11 PUSH1 0x4 MSTORE PUSH1 0x24 PUSH1 0x0 REVERT JUMPDEST PUSH32 0x4E487B7100000000000000000000000000000000000000000000000000000000 PUSH1 0x0 MSTORE PUSH1 0x22 PUSH1 0x4 MSTORE PUSH1 0x24 PUSH1 0x0 REVERT JUMPDEST PUSH1 0x0 DUP1 REVERT JUMPDEST PUSH1 0x0 PUSH1 0x1F NOT PUSH1 0x1F DUP4 ADD AND SWAP1 POP SWAP2 SWAP1 POP JUMP JUMPDEST PUSH2 0xE07 DUP2 PUSH2 0xCDD JUMP JUMPDEST DUP2 EQ PUSH2 0xE12 JUMPI PUSH1 0x0 DUP1 REVERT JUMPDEST POP JUMP JUMPDEST PUSH2 0xE1E DUP2 PUSH2 0xD1B JUMP JUMPDEST DUP2 EQ PUSH2 0xE29 JUMPI PUSH1 0x0 DUP1 REVERT JUMPDEST POP JUMP INVALID LOG2 PUSH5 0x6970667358 0x22 SLT KECCAK256 BLOCKHASH 0xDC 0xD1 INVALID 0x4A CALL 0xDD 0xBA CALLDATASIZE 0xC8 PUSH21 0x2103293F73D7C0A894D1EF50B328F135CDA3D33D04 PUSH5 0x736F6C6343 STOP ADDMOD MOD STOP CALLER LOG2 PUSH5 0x6970667358 0x22 SLT KECCAK256 CREATE 0xB7 0xB6 0xCB 0x29 SWAP2 0xA7 STATICCALL SLT 0xB6 0xB1 0x2A SSTORE DIV 0xC8 SLT INVALID SWAP5 EXTCODEHASH PC 0xEF 0x2C 0xDB REVERT PUSH28 0x73B89B058D056664736F6C6343000806003300000000000000000000 "
		},
		"gasEstimates": {
			"creation": {
				"codeDepositCost": "1403800",
				"executionCost": "1465",
				"totalCost": "1405265"
			},
			"external": {
				"createBlogPost(string,string,string,string)": "infinite",
				"getUploadedPosts()": "infinite",
				"uploadedPosts(uint256)": "4977"
			}
		},
		"methodIdentifiers": {
			"createBlogPost(string,string,string,string)": "7ee661c9",
			"getUploadedPosts()": "a1bf1cca",
			"uploadedPosts(uint256)": "0ba88fa5"
		}
	},
	"abi": [
		{
			"inputs": [
				{
					"internalType": "string",
					"name": "_postTitle",
					"type": "string"
				},
				{
					"internalType": "string",
					"name": "_tag",
					"type": "string"
				},
				{
					"internalType": "string",
					"name": "_timestamp",
					"type": "string"
				},
				{
					"internalType": "string",
					"name": "_content",
					"type": "string"
				}
			],
			"name": "createBlogPost",
			"outputs": [],
			"stateMutability": "nonpayable",
			"type": "function"
		},
		{
			"inputs": [],
			"name": "getUploadedPosts",
			"outputs": [
				{
					"internalType": "contract Post[]",
					"name": "",
					"type": "address[]"
				}
			],
			"stateMutability": "view",
			"type": "function"
		},
		{
			"inputs": [
				{
					"internalType": "uint256",
					"name": "",
					"type": "uint256"
				}
			],
			"name": "uploadedPosts",
			"outputs": [
				{
					"internalType": "contract Post",
					"name": "",
					"type": "address"
				}
			],
			"stateMutability": "view",
			"type": "function"
		}
	]
}